{
  "_format": "hh-sol-artifact-1",
  "contractName": "BackerHub",
  "sourceName": "contracts/CrowdFund.sol",
  "abi": [
    {
      "inputs": [
        {
          "internalType": "string",
          "name": "name",
          "type": "string"
        },
        {
          "internalType": "string",
          "name": "description",
          "type": "string"
        },
        {
          "internalType": "uint256",
          "name": "goalInWei",
          "type": "uint256"
        }
      ],
      "name": "createCampaign",
      "outputs": [],
      "stateMutability": "nonpayable",
      "type": "function"
    },
    {
      "inputs": [
        {
          "internalType": "uint256",
          "name": "",
          "type": "uint256"
        }
      ],
      "name": "deployedCampaigns",
      "outputs": [
        {
          "internalType": "address",
          "name": "",
          "type": "address"
        }
      ],
      "stateMutability": "view",
      "type": "function"
    },
    {
      "inputs": [],
      "name": "getDeployedCampaigns",
      "outputs": [
        {
          "internalType": "address[]",
          "name": "",
          "type": "address[]"
        }
      ],
      "stateMutability": "view",
      "type": "function"
    }
  ],
  "bytecode": "0x6080604052348015600f57600080fd5b5061271f8061001f6000396000f3fe608060405234801561001057600080fd5b50600436106100415760003560e01c8063339d50a5146100465780634acb9d4f14610076578063ffa56a5714610094575b600080fd5b610060600480360381019061005b919061027b565b6100b0565b60405161006d91906102e9565b60405180910390f35b61007e6100ef565b60405161008b91906103c2565b60405180910390f35b6100ae60048036038101906100a9919061052a565b61017d565b005b600081815481106100c057600080fd5b906000526020600020016000915054906101000a900473ffffffffffffffffffffffffffffffffffffffff1681565b6060600080548060200260200160405190810160405280929190818152602001828054801561017357602002820191906000526020600020905b8160009054906101000a900473ffffffffffffffffffffffffffffffffffffffff1673ffffffffffffffffffffffffffffffffffffffff1681526020019060010190808311610129575b5050505050905090565b60008383833360405161018f90610224565b61019c9493929190610643565b604051809103906000f0801580156101b8573d6000803e3d6000fd5b5090506000819080600181540180825580915050600190039060005260206000200160009091909190916101000a81548173ffffffffffffffffffffffffffffffffffffffff021916908373ffffffffffffffffffffffffffffffffffffffff16021790555050505050565b6120538061069783390190565b6000604051905090565b600080fd5b600080fd5b6000819050919050565b61025881610245565b811461026357600080fd5b50565b6000813590506102758161024f565b92915050565b6000602082840312156102915761029061023b565b5b600061029f84828501610266565b91505092915050565b600073ffffffffffffffffffffffffffffffffffffffff82169050919050565b60006102d3826102a8565b9050919050565b6102e3816102c8565b82525050565b60006020820190506102fe60008301846102da565b92915050565b600081519050919050565b600082825260208201905092915050565b6000819050602082019050919050565b610339816102c8565b82525050565b600061034b8383610330565b60208301905092915050565b6000602082019050919050565b600061036f82610304565b610379818561030f565b935061038483610320565b8060005b838110156103b557815161039c888261033f565b97506103a783610357565b925050600181019050610388565b5085935050505092915050565b600060208201905081810360008301526103dc8184610364565b905092915050565b600080fd5b600080fd5b6000601f19601f8301169050919050565b7f4e487b7100000000000000000000000000000000000000000000000000000000600052604160045260246000fd5b610437826103ee565b810181811067ffffffffffffffff82111715610456576104556103ff565b5b80604052505050565b6000610469610231565b9050610475828261042e565b919050565b600067ffffffffffffffff821115610495576104946103ff565b5b61049e826103ee565b9050602081019050919050565b82818337600083830152505050565b60006104cd6104c88461047a565b61045f565b9050828152602081018484840111156104e9576104e86103e9565b5b6104f48482856104ab565b509392505050565b600082601f830112610511576105106103e4565b5b81356105218482602086016104ba565b91505092915050565b6000806000606084860312156105435761054261023b565b5b600084013567ffffffffffffffff81111561056157610560610240565b5b61056d868287016104fc565b935050602084013567ffffffffffffffff81111561058e5761058d610240565b5b61059a868287016104fc565b92505060406105ab86828701610266565b9150509250925092565b600081519050919050565b600082825260208201905092915050565b60005b838110156105ef5780820151818401526020810190506105d4565b60008484015250505050565b6000610606826105b5565b61061081856105c0565b93506106208185602086016105d1565b610629816103ee565b840191505092915050565b61063d81610245565b82525050565b6000608082019050818103600083015261065d81876105fb565b9050818103602083015261067181866105fb565b90506106806040830185610634565b61068d60608301846102da565b9594505050505056fe60c060405234801561001057600080fd5b50604051612053380380612053833981810160405281019061003291906102a8565b60016000819055508360019081610049919061055e565b508260029081610059919061055e565b508073ffffffffffffffffffffffffffffffffffffffff1660808173ffffffffffffffffffffffffffffffffffffffff16815250508160a0818152505050505050610630565b6000604051905090565b600080fd5b600080fd5b600080fd5b600080fd5b6000601f19601f8301169050919050565b7f4e487b7100000000000000000000000000000000000000000000000000000000600052604160045260246000fd5b610106826100bd565b810181811067ffffffffffffffff82111715610125576101246100ce565b5b80604052505050565b600061013861009f565b905061014482826100fd565b919050565b600067ffffffffffffffff821115610164576101636100ce565b5b61016d826100bd565b9050602081019050919050565b60005b8381101561019857808201518184015260208101905061017d565b60008484015250505050565b60006101b76101b284610149565b61012e565b9050828152602081018484840111156101d3576101d26100b8565b5b6101de84828561017a565b509392505050565b600082601f8301126101fb576101fa6100b3565b5b815161020b8482602086016101a4565b91505092915050565b6000819050919050565b61022781610214565b811461023257600080fd5b50565b6000815190506102448161021e565b92915050565b600073ffffffffffffffffffffffffffffffffffffffff82169050919050565b60006102758261024a565b9050919050565b6102858161026a565b811461029057600080fd5b50565b6000815190506102a28161027c565b92915050565b600080600080608085870312156102c2576102c16100a9565b5b600085015167ffffffffffffffff8111156102e0576102df6100ae565b5b6102ec878288016101e6565b945050602085015167ffffffffffffffff81111561030d5761030c6100ae565b5b610319878288016101e6565b935050604061032a87828801610235565b925050606061033b87828801610293565b91505092959194509250565b600081519050919050565b7f4e487b7100000000000000000000000000000000000000000000000000000000600052602260045260246000fd5b6000600282049050600182168061039957607f821691505b6020821081036103ac576103ab610352565b5b50919050565b60008190508160005260206000209050919050565b60006020601f8301049050919050565b600082821b905092915050565b6000600883026104147fffffffffffffffffffffffffffffffffffffffffffffffffffffffffffffffff826103d7565b61041e86836103d7565b95508019841693508086168417925050509392505050565b6000819050919050565b600061045b61045661045184610214565b610436565b610214565b9050919050565b6000819050919050565b61047583610440565b61048961048182610462565b8484546103e4565b825550505050565b600090565b61049e610491565b6104a981848461046c565b505050565b5b818110156104cd576104c2600082610496565b6001810190506104af565b5050565b601f821115610512576104e3816103b2565b6104ec846103c7565b810160208510156104fb578190505b61050f610507856103c7565b8301826104ae565b50505b505050565b600082821c905092915050565b600061053560001984600802610517565b1980831691505092915050565b600061054e8383610524565b9150826002028217905092915050565b61056782610347565b67ffffffffffffffff8111156105805761057f6100ce565b5b61058a8254610381565b6105958282856104d1565b600060209050601f8311600181146105c857600084156105b6578287015190505b6105c08582610542565b865550610628565b601f1984166105d6866103b2565b60005b828110156105fe578489015182556001820191506020850194506020810190506105d9565b8683101561061b5784890151610617601f891682610524565b8355505b6001600288020188555050505b505050505050565b60805160a0516119f761065c600039600061032d015260008181610351015261050a01526119f76000f3fe60806040526004361061009c5760003560e01c80637b3e5e7b116100645780637b3e5e7b1461018a57806381d12c58146101b557806382fde093146101f65780638a9cfd5514610221578063d7bb99ba1461024a578063d7d1bbdb146102545761009c565b806306fdde03146100a15780630a144391146100cc5780632636b94514610109578063481c6a75146101345780637284e4161461015f575b600080fd5b3480156100ad57600080fd5b506100b661027d565b6040516100c39190610ce9565b60405180910390f35b3480156100d857600080fd5b506100f360048036038101906100ee9190610d7d565b61030b565b6040516101009190610dc5565b60405180910390f35b34801561011557600080fd5b5061011e61032b565b60405161012b9190610df9565b60405180910390f35b34801561014057600080fd5b5061014961034f565b6040516101569190610e23565b60405180910390f35b34801561016b57600080fd5b50610174610373565b6040516101819190610ce9565b60405180910390f35b34801561019657600080fd5b5061019f610401565b6040516101ac9190610df9565b60405180910390f35b3480156101c157600080fd5b506101dc60048036038101906101d79190610e6a565b610407565b6040516101ed959493929190610e97565b60405180910390f35b34801561020257600080fd5b5061020b610502565b6040516102189190610df9565b60405180910390f35b34801561022d57600080fd5b5061024860048036038101906102439190611026565b610508565b005b61025261072d565b005b34801561026057600080fd5b5061027b60048036038101906102769190610e6a565b610858565b005b6001805461028a906110c4565b80601f01602080910402602001604051908101604052809291908181526020018280546102b6906110c4565b80156103035780601f106102d857610100808354040283529160200191610303565b820191906000526020600020905b8154815290600101906020018083116102e657829003601f168201915b505050505081565b60066020528060005260406000206000915054906101000a900460ff1681565b7f000000000000000000000000000000000000000000000000000000000000000081565b7f000000000000000000000000000000000000000000000000000000000000000081565b60028054610380906110c4565b80601f01602080910402602001604051908101604052809291908181526020018280546103ac906110c4565b80156103f95780601f106103ce576101008083540402835291602001916103f9565b820191906000526020600020905b8154815290600101906020018083116103dc57829003601f168201915b505050505081565b60035481565b6005818154811061041757600080fd5b906000526020600020906005020160009150905080600001805461043a906110c4565b80601f0160208091040260200160405190810160405280929190818152602001828054610466906110c4565b80156104b35780601f10610488576101008083540402835291602001916104b3565b820191906000526020600020905b81548152906001019060200180831161049657829003601f168201915b5050505050908060010154908060020160009054906101000a900473ffffffffffffffffffffffffffffffffffffffff16908060020160149054906101000a900460ff16908060030154905085565b60045481565b7f000000000000000000000000000000000000000000000000000000000000000073ffffffffffffffffffffffffffffffffffffffff163373ffffffffffffffffffffffffffffffffffffffff1614610596576040517f08c379a000000000000000000000000000000000000000000000000000000000815260040161058d90611167565b60405180910390fd5b600082116105d9576040517f08c379a00000000000000000000000000000000000000000000000000000000081526004016105d0906111f9565b60405180910390fd5b4782111561061c576040517f08c379a00000000000000000000000000000000000000000000000000000000081526004016106139061128b565b60405180910390fd5b600060056001816001815401808255809150500390600052602060002090600502019050838160000190816106519190611457565b50828160010181905550818160020160006101000a81548173ffffffffffffffffffffffffffffffffffffffff021916908373ffffffffffffffffffffffffffffffffffffffff16021790555060008160020160146101000a81548160ff021916908315150217905550600081600301819055508173ffffffffffffffffffffffffffffffffffffffff1660016005805490506106ee9190611558565b7ff7365309cb3a1c4835d32acd2153ebf718723e270daad5bb2aac6dd47564583b868660405161071f92919061158c565b60405180910390a350505050565b346003600082825461073f91906115bc565b92505081905550600660003373ffffffffffffffffffffffffffffffffffffffff1673ffffffffffffffffffffffffffffffffffffffff16815260200190815260200160002060009054906101000a900460ff16610808576001600660003373ffffffffffffffffffffffffffffffffffffffff1673ffffffffffffffffffffffffffffffffffffffff16815260200190815260200160002060006101000a81548160ff02191690831515021790555060046000815480929190610802906115f0565b91905055505b3373ffffffffffffffffffffffffffffffffffffffff167f4d154d4aae216bed6d0926db77c00df2b57c6b5ba4eee05775de20facede3a7b3460405161084e9190610df9565b60405180910390a2565b600660003373ffffffffffffffffffffffffffffffffffffffff1673ffffffffffffffffffffffffffffffffffffffff16815260200190815260200160002060009054906101000a900460ff166108e4576040517f08c379a00000000000000000000000000000000000000000000000000000000081526004016108db906116aa565b60405180910390fd5b6108ec610c00565b600060058281548110610902576109016116ca565b5b906000526020600020906005020190508060020160149054906101000a900460ff1615610964576040517f08c379a000000000000000000000000000000000000000000000000000000000815260040161095b9061176b565b60405180910390fd5b8060040160003373ffffffffffffffffffffffffffffffffffffffff1673ffffffffffffffffffffffffffffffffffffffff16815260200190815260200160002060009054906101000a900460ff16156109f3576040517f08c379a00000000000000000000000000000000000000000000000000000000081526004016109ea906117fd565b60405180910390fd5b60018160040160003373ffffffffffffffffffffffffffffffffffffffff1673ffffffffffffffffffffffffffffffffffffffff16815260200190815260200160002060006101000a81548160ff021916908315150217905550806003016000815480929190610a62906115f0565b91905055503373ffffffffffffffffffffffffffffffffffffffff16827ff3dc904660a0ea05aba8dfa1e21fbc4fb2914be2a3029da7b0fdd3e5eee20ddb60405160405180910390a36002600454610aba919061184c565b81600301541115610bf45760018160020160146101000a81548160ff02191690831515021790555060008160020160009054906101000a900473ffffffffffffffffffffffffffffffffffffffff1673ffffffffffffffffffffffffffffffffffffffff168260010154604051610b30906118ae565b60006040518083038185875af1925050503d8060008114610b6d576040519150601f19603f3d011682016040523d82523d6000602084013e610b72565b606091505b5050905080610bb6576040517f08c379a0000000000000000000000000000000000000000000000000000000008152600401610bad90611935565b60405180910390fd5b827f32049dd953ebfcf3c26cca1f53047ca229eb54d89c7d68bac411c76510ade8bf8360010154604051610bea9190610df9565b60405180910390a2505b50610bfd610c4f565b50565b600260005403610c45576040517f08c379a0000000000000000000000000000000000000000000000000000000008152600401610c3c906119a1565b60405180910390fd5b6002600081905550565b6001600081905550565b600081519050919050565b600082825260208201905092915050565b60005b83811015610c93578082015181840152602081019050610c78565b60008484015250505050565b6000601f19601f8301169050919050565b6000610cbb82610c59565b610cc58185610c64565b9350610cd5818560208601610c75565b610cde81610c9f565b840191505092915050565b60006020820190508181036000830152610d038184610cb0565b905092915050565b6000604051905090565b600080fd5b600080fd5b600073ffffffffffffffffffffffffffffffffffffffff82169050919050565b6000610d4a82610d1f565b9050919050565b610d5a81610d3f565b8114610d6557600080fd5b50565b600081359050610d7781610d51565b92915050565b600060208284031215610d9357610d92610d15565b5b6000610da184828501610d68565b91505092915050565b60008115159050919050565b610dbf81610daa565b82525050565b6000602082019050610dda6000830184610db6565b92915050565b6000819050919050565b610df381610de0565b82525050565b6000602082019050610e0e6000830184610dea565b92915050565b610e1d81610d3f565b82525050565b6000602082019050610e386000830184610e14565b92915050565b610e4781610de0565b8114610e5257600080fd5b50565b600081359050610e6481610e3e565b92915050565b600060208284031215610e8057610e7f610d15565b5b6000610e8e84828501610e55565b91505092915050565b600060a0820190508181036000830152610eb18188610cb0565b9050610ec06020830187610dea565b610ecd6040830186610e14565b610eda6060830185610db6565b610ee76080830184610dea565b9695505050505050565b600080fd5b600080fd5b7f4e487b7100000000000000000000000000000000000000000000000000000000600052604160045260246000fd5b610f3382610c9f565b810181811067ffffffffffffffff82111715610f5257610f51610efb565b5b80604052505050565b6000610f65610d0b565b9050610f718282610f2a565b919050565b600067ffffffffffffffff821115610f9157610f90610efb565b5b610f9a82610c9f565b9050602081019050919050565b82818337600083830152505050565b6000610fc9610fc484610f76565b610f5b565b905082815260208101848484011115610fe557610fe4610ef6565b5b610ff0848285610fa7565b509392505050565b600082601f83011261100d5761100c610ef1565b5b813561101d848260208601610fb6565b91505092915050565b60008060006060848603121561103f5761103e610d15565b5b600084013567ffffffffffffffff81111561105d5761105c610d1a565b5b61106986828701610ff8565b935050602061107a86828701610e55565b925050604061108b86828701610d68565b9150509250925092565b7f4e487b7100000000000000000000000000000000000000000000000000000000600052602260045260246000fd5b600060028204905060018216806110dc57607f821691505b6020821081036110ef576110ee611095565b5b50919050565b7f4f6e6c7920746865206d616e616765722063616e20706572666f726d2074686960008201527f7320616374696f6e2e0000000000000000000000000000000000000000000000602082015250565b6000611151602983610c64565b915061115c826110f5565b604082019050919050565b6000602082019050818103600083015261118081611144565b9050919050565b7f526571756573742076616c7565206d757374206265206772656174657220746860008201527f616e207a65726f2e000000000000000000000000000000000000000000000000602082015250565b60006111e3602883610c64565b91506111ee82611187565b604082019050919050565b60006020820190508181036000830152611212816111d6565b9050919050565b7f526571756573742076616c7565206578636565647320636f6e7472616374206260008201527f616c616e63652e00000000000000000000000000000000000000000000000000602082015250565b6000611275602783610c64565b915061128082611219565b604082019050919050565b600060208201905081810360008301526112a481611268565b9050919050565b60008190508160005260206000209050919050565b60006020601f8301049050919050565b600082821b905092915050565b60006008830261130d7fffffffffffffffffffffffffffffffffffffffffffffffffffffffffffffffff826112d0565b61131786836112d0565b95508019841693508086168417925050509392505050565b6000819050919050565b600061135461134f61134a84610de0565b61132f565b610de0565b9050919050565b6000819050919050565b61136e83611339565b61138261137a8261135b565b8484546112dd565b825550505050565b600090565b61139761138a565b6113a2818484611365565b505050565b5b818110156113c6576113bb60008261138f565b6001810190506113a8565b5050565b601f82111561140b576113dc816112ab565b6113e5846112c0565b810160208510156113f4578190505b611408611400856112c0565b8301826113a7565b50505b505050565b600082821c905092915050565b600061142e60001984600802611410565b1980831691505092915050565b6000611447838361141d565b9150826002028217905092915050565b61146082610c59565b67ffffffffffffffff81111561147957611478610efb565b5b61148382546110c4565b61148e8282856113ca565b600060209050601f8311600181146114c157600084156114af578287015190505b6114b9858261143b565b865550611521565b601f1984166114cf866112ab565b60005b828110156114f7578489015182556001820191506020850194506020810190506114d2565b868310156115145784890151611510601f89168261141d565b8355505b6001600288020188555050505b505050505050565b7f4e487b7100000000000000000000000000000000000000000000000000000000600052601160045260246000fd5b600061156382610de0565b915061156e83610de0565b925082820390508181111561158657611585611529565b5b92915050565b600060408201905081810360008301526115a68185610cb0565b90506115b56020830184610dea565b9392505050565b60006115c782610de0565b91506115d283610de0565b92508282019050808211156115ea576115e9611529565b5b92915050565b60006115fb82610de0565b91507fffffffffffffffffffffffffffffffffffffffffffffffffffffffffffffffff820361162d5761162c611529565b5b600182019050919050565b7f596f75206d757374206265206120636f6e7472696275746f7220746f2070657260008201527f666f726d207468697320616374696f6e2e000000000000000000000000000000602082015250565b6000611694603183610c64565b915061169f82611638565b604082019050919050565b600060208201905081810360008301526116c381611687565b9050919050565b7f4e487b7100000000000000000000000000000000000000000000000000000000600052603260045260246000fd5b7f526571756573742068617320616c7265616479206265656e20636f6d706c657460008201527f65642e0000000000000000000000000000000000000000000000000000000000602082015250565b6000611755602383610c64565b9150611760826116f9565b604082019050919050565b6000602082019050818103600083015261178481611748565b9050919050565b7f596f75206861766520616c726561647920766f746564206f6e2074686973207260008201527f6571756573742e00000000000000000000000000000000000000000000000000602082015250565b60006117e7602783610c64565b91506117f28261178b565b604082019050919050565b60006020820190508181036000830152611816816117da565b9050919050565b7f4e487b7100000000000000000000000000000000000000000000000000000000600052601260045260246000fd5b600061185782610de0565b915061186283610de0565b9250826118725761187161181d565b5b828204905092915050565b600081905092915050565b50565b600061189860008361187d565b91506118a382611888565b600082019050919050565b60006118b98261188b565b9150819050919050565b7f4661696c656420746f2073656e6420457468657220746f20726563697069656e60008201527f742e000000000000000000000000000000000000000000000000000000000000602082015250565b600061191f602283610c64565b915061192a826118c3565b604082019050919050565b6000602082019050818103600083015261194e81611912565b9050919050565b7f5265656e7472616e637947756172643a207265656e7472616e742063616c6c00600082015250565b600061198b601f83610c64565b915061199682611955565b602082019050919050565b600060208201905081810360008301526119ba8161197e565b905091905056fea2646970667358221220ed3de2cb80ea429fec4aa3bb7347d1ee83a27234f2d3a5b9a631060be9eda7ca64736f6c634300081c0033a264697066735822122062d3cb69317521559a19e24b84631d854578c8039944f3d591c87e49e88db93764736f6c634300081c0033",
  "linkReferences": {},
  "deployedLinkReferences": {}
}