{
  "_format": "hh-sol-artifact-1",
  "contractName": "BackerHub",
  "sourceName": "contracts/CrowdFund.sol",
  "abi": [
    {
      "inputs": [
        {
          "internalType": "string",
          "name": "name",
          "type": "string"
        },
        {
          "internalType": "string",
          "name": "description",
          "type": "string"
        },
        {
          "internalType": "uint256",
          "name": "goalInWei",
          "type": "uint256"
        }
      ],
      "name": "createCampaign",
      "outputs": [],
      "stateMutability": "nonpayable",
      "type": "function"
    },
    {
      "inputs": [
        {
          "internalType": "uint256",
          "name": "",
          "type": "uint256"
        }
      ],
      "name": "deployedCampaigns",
      "outputs": [
        {
          "internalType": "address",
          "name": "",
          "type": "address"
        }
      ],
      "stateMutability": "view",
      "type": "function"
    },
    {
      "inputs": [],
      "name": "getDeployedCampaigns",
      "outputs": [
        {
          "internalType": "address[]",
          "name": "",
          "type": "address[]"
        }
      ],
      "stateMutability": "view",
      "type": "function"
    }
  ],
  "bytecode": "0x6080604052348015600f57600080fd5b506129c08061001f6000396000f3fe608060405234801561001057600080fd5b50600436106100415760003560e01c8063339d50a5146100465780634acb9d4f14610076578063ffa56a5714610094575b600080fd5b610060600480360381019061005b919061027b565b6100b0565b60405161006d91906102e9565b60405180910390f35b61007e6100ef565b60405161008b91906103c2565b60405180910390f35b6100ae60048036038101906100a9919061052a565b61017d565b005b600081815481106100c057600080fd5b906000526020600020016000915054906101000a900473ffffffffffffffffffffffffffffffffffffffff1681565b6060600080548060200260200160405190810160405280929190818152602001828054801561017357602002820191906000526020600020905b8160009054906101000a900473ffffffffffffffffffffffffffffffffffffffff1673ffffffffffffffffffffffffffffffffffffffff1681526020019060010190808311610129575b5050505050905090565b60008383833360405161018f90610224565b61019c9493929190610643565b604051809103906000f0801580156101b8573d6000803e3d6000fd5b5090506000819080600181540180825580915050600190039060005260206000200160009091909190916101000a81548173ffffffffffffffffffffffffffffffffffffffff021916908373ffffffffffffffffffffffffffffffffffffffff16021790555050505050565b6122f48061069783390190565b6000604051905090565b600080fd5b600080fd5b6000819050919050565b61025881610245565b811461026357600080fd5b50565b6000813590506102758161024f565b92915050565b6000602082840312156102915761029061023b565b5b600061029f84828501610266565b91505092915050565b600073ffffffffffffffffffffffffffffffffffffffff82169050919050565b60006102d3826102a8565b9050919050565b6102e3816102c8565b82525050565b60006020820190506102fe60008301846102da565b92915050565b600081519050919050565b600082825260208201905092915050565b6000819050602082019050919050565b610339816102c8565b82525050565b600061034b8383610330565b60208301905092915050565b6000602082019050919050565b600061036f82610304565b610379818561030f565b935061038483610320565b8060005b838110156103b557815161039c888261033f565b97506103a783610357565b925050600181019050610388565b5085935050505092915050565b600060208201905081810360008301526103dc8184610364565b905092915050565b600080fd5b600080fd5b6000601f19601f8301169050919050565b7f4e487b7100000000000000000000000000000000000000000000000000000000600052604160045260246000fd5b610437826103ee565b810181811067ffffffffffffffff82111715610456576104556103ff565b5b80604052505050565b6000610469610231565b9050610475828261042e565b919050565b600067ffffffffffffffff821115610495576104946103ff565b5b61049e826103ee565b9050602081019050919050565b82818337600083830152505050565b60006104cd6104c88461047a565b61045f565b9050828152602081018484840111156104e9576104e86103e9565b5b6104f48482856104ab565b509392505050565b600082601f830112610511576105106103e4565b5b81356105218482602086016104ba565b91505092915050565b6000806000606084860312156105435761054261023b565b5b600084013567ffffffffffffffff81111561056157610560610240565b5b61056d868287016104fc565b935050602084013567ffffffffffffffff81111561058e5761058d610240565b5b61059a868287016104fc565b92505060406105ab86828701610266565b9150509250925092565b600081519050919050565b600082825260208201905092915050565b60005b838110156105ef5780820151818401526020810190506105d4565b60008484015250505050565b6000610606826105b5565b61061081856105c0565b93506106208185602086016105d1565b610629816103ee565b840191505092915050565b61063d81610245565b82525050565b6000608082019050818103600083015261065d81876105fb565b9050818103602083015261067181866105fb565b90506106806040830185610634565b61068d60608301846102da565b9594505050505056fe60c060405234801561001057600080fd5b506040516122f43803806122f4833981810160405281019061003291906102a8565b60016000819055508360019081610049919061055e565b508260029081610059919061055e565b508073ffffffffffffffffffffffffffffffffffffffff1660808173ffffffffffffffffffffffffffffffffffffffff16815250508160a0818152505050505050610630565b6000604051905090565b600080fd5b600080fd5b600080fd5b600080fd5b6000601f19601f8301169050919050565b7f4e487b7100000000000000000000000000000000000000000000000000000000600052604160045260246000fd5b610106826100bd565b810181811067ffffffffffffffff82111715610125576101246100ce565b5b80604052505050565b600061013861009f565b905061014482826100fd565b919050565b600067ffffffffffffffff821115610164576101636100ce565b5b61016d826100bd565b9050602081019050919050565b60005b8381101561019857808201518184015260208101905061017d565b60008484015250505050565b60006101b76101b284610149565b61012e565b9050828152602081018484840111156101d3576101d26100b8565b5b6101de84828561017a565b509392505050565b600082601f8301126101fb576101fa6100b3565b5b815161020b8482602086016101a4565b91505092915050565b6000819050919050565b61022781610214565b811461023257600080fd5b50565b6000815190506102448161021e565b92915050565b600073ffffffffffffffffffffffffffffffffffffffff82169050919050565b60006102758261024a565b9050919050565b6102858161026a565b811461029057600080fd5b50565b6000815190506102a28161027c565b92915050565b600080600080608085870312156102c2576102c16100a9565b5b600085015167ffffffffffffffff8111156102e0576102df6100ae565b5b6102ec878288016101e6565b945050602085015167ffffffffffffffff81111561030d5761030c6100ae565b5b610319878288016101e6565b935050604061032a87828801610235565b925050606061033b87828801610293565b91505092959194509250565b600081519050919050565b7f4e487b7100000000000000000000000000000000000000000000000000000000600052602260045260246000fd5b6000600282049050600182168061039957607f821691505b6020821081036103ac576103ab610352565b5b50919050565b60008190508160005260206000209050919050565b60006020601f8301049050919050565b600082821b905092915050565b6000600883026104147fffffffffffffffffffffffffffffffffffffffffffffffffffffffffffffffff826103d7565b61041e86836103d7565b95508019841693508086168417925050509392505050565b6000819050919050565b600061045b61045661045184610214565b610436565b610214565b9050919050565b6000819050919050565b61047583610440565b61048961048182610462565b8484546103e4565b825550505050565b600090565b61049e610491565b6104a981848461046c565b505050565b5b818110156104cd576104c2600082610496565b6001810190506104af565b5050565b601f821115610512576104e3816103b2565b6104ec846103c7565b810160208510156104fb578190505b61050f610507856103c7565b8301826104ae565b50505b505050565b600082821c905092915050565b600061053560001984600802610517565b1980831691505092915050565b600061054e8383610524565b9150826002028217905092915050565b61056782610347565b67ffffffffffffffff8111156105805761057f6100ce565b5b61058a8254610381565b6105958282856104d1565b600060209050601f8311600181146105c857600084156105b6578287015190505b6105c08582610542565b865550610628565b601f1984166105d6866103b2565b60005b828110156105fe578489015182556001820191506020850194506020810190506105d9565b8683101561061b5784890151610617601f891682610524565b8355505b6001600288020188555050505b505050505050565b60805160a051611c8a61066a600039600081816103b701526104070152600081816103e60152818161056701526107200152611c8a6000f3fe6080604052600436106100c25760003560e01c80637284e4161161007f57806382fde0931161005957806382fde093146102785780638a9cfd55146102a3578063d7bb99ba146102cc578063d7d1bbdb146102d6576100c2565b80637284e416146101e15780637b3e5e7b1461020c57806381d12c5814610237576100c2565b806306fdde03146100c75780630a144391146100f257806312065fe01461012f5780632636b9451461015a5780634051ddac14610185578063481c6a75146101b6575b600080fd5b3480156100d357600080fd5b506100dc6102ff565b6040516100e99190610eff565b60405180910390f35b3480156100fe57600080fd5b5061011960048036038101906101149190610f93565b61038d565b6040516101269190610fdb565b60405180910390f35b34801561013b57600080fd5b506101446103ad565b604051610151919061100f565b60405180910390f35b34801561016657600080fd5b5061016f6103b5565b60405161017c919061100f565b60405180910390f35b34801561019157600080fd5b5061019a6103d9565b6040516101ad9796959493929190611039565b60405180910390f35b3480156101c257600080fd5b506101cb610565565b6040516101d891906110b6565b60405180910390f35b3480156101ed57600080fd5b506101f6610589565b6040516102039190610eff565b60405180910390f35b34801561021857600080fd5b50610221610617565b60405161022e919061100f565b60405180910390f35b34801561024357600080fd5b5061025e600480360381019061025991906110fd565b61061d565b60405161026f95949392919061112a565b60405180910390f35b34801561028457600080fd5b5061028d610718565b60405161029a919061100f565b60405180910390f35b3480156102af57600080fd5b506102ca60048036038101906102c591906112b9565b61071e565b005b6102d4610943565b005b3480156102e257600080fd5b506102fd60048036038101906102f891906110fd565b610a6e565b005b6001805461030c90611357565b80601f016020809104026020016040519081016040528092919081815260200182805461033890611357565b80156103855780601f1061035a57610100808354040283529160200191610385565b820191906000526020600020905b81548152906001019060200180831161036857829003601f168201915b505050505081565b60066020528060005260406000206000915054906101000a900460ff1681565b600047905090565b7f000000000000000000000000000000000000000000000000000000000000000081565b60008060008060006060807f00000000000000000000000000000000000000000000000000000000000000007f00000000000000000000000000000000000000000000000000000000000000006003546004546005805490506001600281805461044290611357565b80601f016020809104026020016040519081016040528092919081815260200182805461046e90611357565b80156104bb5780601f10610490576101008083540402835291602001916104bb565b820191906000526020600020905b81548152906001019060200180831161049e57829003601f168201915b505050505091508080546104ce90611357565b80601f01602080910402602001604051908101604052809291908181526020018280546104fa90611357565b80156105475780601f1061051c57610100808354040283529160200191610547565b820191906000526020600020905b81548152906001019060200180831161052a57829003601f168201915b50505050509050965096509650965096509650965090919293949596565b7f000000000000000000000000000000000000000000000000000000000000000081565b6002805461059690611357565b80601f01602080910402602001604051908101604052809291908181526020018280546105c290611357565b801561060f5780601f106105e45761010080835404028352916020019161060f565b820191906000526020600020905b8154815290600101906020018083116105f257829003601f168201915b505050505081565b60035481565b6005818154811061062d57600080fd5b906000526020600020906005020160009150905080600001805461065090611357565b80601f016020809104026020016040519081016040528092919081815260200182805461067c90611357565b80156106c95780601f1061069e576101008083540402835291602001916106c9565b820191906000526020600020905b8154815290600101906020018083116106ac57829003601f168201915b5050505050908060010154908060020160009054906101000a900473ffffffffffffffffffffffffffffffffffffffff16908060020160149054906101000a900460ff16908060030154905085565b60045481565b7f000000000000000000000000000000000000000000000000000000000000000073ffffffffffffffffffffffffffffffffffffffff163373ffffffffffffffffffffffffffffffffffffffff16146107ac576040517f08c379a00000000000000000000000000000000000000000000000000000000081526004016107a3906113fa565b60405180910390fd5b600082116107ef576040517f08c379a00000000000000000000000000000000000000000000000000000000081526004016107e69061148c565b60405180910390fd5b47821115610832576040517f08c379a00000000000000000000000000000000000000000000000000000000081526004016108299061151e565b60405180910390fd5b6000600560018160018154018082558091505003906000526020600020906005020190508381600001908161086791906116ea565b50828160010181905550818160020160006101000a81548173ffffffffffffffffffffffffffffffffffffffff021916908373ffffffffffffffffffffffffffffffffffffffff16021790555060008160020160146101000a81548160ff021916908315150217905550600081600301819055508173ffffffffffffffffffffffffffffffffffffffff16600160058054905061090491906117eb565b7ff7365309cb3a1c4835d32acd2153ebf718723e270daad5bb2aac6dd47564583b868660405161093592919061181f565b60405180910390a350505050565b3460036000828254610955919061184f565b92505081905550600660003373ffffffffffffffffffffffffffffffffffffffff1673ffffffffffffffffffffffffffffffffffffffff16815260200190815260200160002060009054906101000a900460ff16610a1e576001600660003373ffffffffffffffffffffffffffffffffffffffff1673ffffffffffffffffffffffffffffffffffffffff16815260200190815260200160002060006101000a81548160ff02191690831515021790555060046000815480929190610a1890611883565b91905055505b3373ffffffffffffffffffffffffffffffffffffffff167f4d154d4aae216bed6d0926db77c00df2b57c6b5ba4eee05775de20facede3a7b34604051610a64919061100f565b60405180910390a2565b600660003373ffffffffffffffffffffffffffffffffffffffff1673ffffffffffffffffffffffffffffffffffffffff16815260200190815260200160002060009054906101000a900460ff16610afa576040517f08c379a0000000000000000000000000000000000000000000000000000000008152600401610af19061193d565b60405180910390fd5b610b02610e16565b600060058281548110610b1857610b1761195d565b5b906000526020600020906005020190508060020160149054906101000a900460ff1615610b7a576040517f08c379a0000000000000000000000000000000000000000000000000000000008152600401610b71906119fe565b60405180910390fd5b8060040160003373ffffffffffffffffffffffffffffffffffffffff1673ffffffffffffffffffffffffffffffffffffffff16815260200190815260200160002060009054906101000a900460ff1615610c09576040517f08c379a0000000000000000000000000000000000000000000000000000000008152600401610c0090611a90565b60405180910390fd5b60018160040160003373ffffffffffffffffffffffffffffffffffffffff1673ffffffffffffffffffffffffffffffffffffffff16815260200190815260200160002060006101000a81548160ff021916908315150217905550806003016000815480929190610c7890611883565b91905055503373ffffffffffffffffffffffffffffffffffffffff16827ff3dc904660a0ea05aba8dfa1e21fbc4fb2914be2a3029da7b0fdd3e5eee20ddb60405160405180910390a36002600454610cd09190611adf565b81600301541115610e0a5760018160020160146101000a81548160ff02191690831515021790555060008160020160009054906101000a900473ffffffffffffffffffffffffffffffffffffffff1673ffffffffffffffffffffffffffffffffffffffff168260010154604051610d4690611b41565b60006040518083038185875af1925050503d8060008114610d83576040519150601f19603f3d011682016040523d82523d6000602084013e610d88565b606091505b5050905080610dcc576040517f08c379a0000000000000000000000000000000000000000000000000000000008152600401610dc390611bc8565b60405180910390fd5b827f32049dd953ebfcf3c26cca1f53047ca229eb54d89c7d68bac411c76510ade8bf8360010154604051610e00919061100f565b60405180910390a2505b50610e13610e65565b50565b600260005403610e5b576040517f08c379a0000000000000000000000000000000000000000000000000000000008152600401610e5290611c34565b60405180910390fd5b6002600081905550565b6001600081905550565b600081519050919050565b600082825260208201905092915050565b60005b83811015610ea9578082015181840152602081019050610e8e565b60008484015250505050565b6000601f19601f8301169050919050565b6000610ed182610e6f565b610edb8185610e7a565b9350610eeb818560208601610e8b565b610ef481610eb5565b840191505092915050565b60006020820190508181036000830152610f198184610ec6565b905092915050565b6000604051905090565b600080fd5b600080fd5b600073ffffffffffffffffffffffffffffffffffffffff82169050919050565b6000610f6082610f35565b9050919050565b610f7081610f55565b8114610f7b57600080fd5b50565b600081359050610f8d81610f67565b92915050565b600060208284031215610fa957610fa8610f2b565b5b6000610fb784828501610f7e565b91505092915050565b60008115159050919050565b610fd581610fc0565b82525050565b6000602082019050610ff06000830184610fcc565b92915050565b6000819050919050565b61100981610ff6565b82525050565b60006020820190506110246000830184611000565b92915050565b61103381610f55565b82525050565b600060e08201905061104e600083018a61102a565b61105b6020830189611000565b6110686040830188611000565b6110756060830187611000565b6110826080830186611000565b81810360a08301526110948185610ec6565b905081810360c08301526110a88184610ec6565b905098975050505050505050565b60006020820190506110cb600083018461102a565b92915050565b6110da81610ff6565b81146110e557600080fd5b50565b6000813590506110f7816110d1565b92915050565b60006020828403121561111357611112610f2b565b5b6000611121848285016110e8565b91505092915050565b600060a08201905081810360008301526111448188610ec6565b90506111536020830187611000565b611160604083018661102a565b61116d6060830185610fcc565b61117a6080830184611000565b9695505050505050565b600080fd5b600080fd5b7f4e487b7100000000000000000000000000000000000000000000000000000000600052604160045260246000fd5b6111c682610eb5565b810181811067ffffffffffffffff821117156111e5576111e461118e565b5b80604052505050565b60006111f8610f21565b905061120482826111bd565b919050565b600067ffffffffffffffff8211156112245761122361118e565b5b61122d82610eb5565b9050602081019050919050565b82818337600083830152505050565b600061125c61125784611209565b6111ee565b90508281526020810184848401111561127857611277611189565b5b61128384828561123a565b509392505050565b600082601f8301126112a05761129f611184565b5b81356112b0848260208601611249565b91505092915050565b6000806000606084860312156112d2576112d1610f2b565b5b600084013567ffffffffffffffff8111156112f0576112ef610f30565b5b6112fc8682870161128b565b935050602061130d868287016110e8565b925050604061131e86828701610f7e565b9150509250925092565b7f4e487b7100000000000000000000000000000000000000000000000000000000600052602260045260246000fd5b6000600282049050600182168061136f57607f821691505b60208210810361138257611381611328565b5b50919050565b7f4f6e6c7920746865206d616e616765722063616e20706572666f726d2074686960008201527f7320616374696f6e2e0000000000000000000000000000000000000000000000602082015250565b60006113e4602983610e7a565b91506113ef82611388565b604082019050919050565b60006020820190508181036000830152611413816113d7565b9050919050565b7f526571756573742076616c7565206d757374206265206772656174657220746860008201527f616e207a65726f2e000000000000000000000000000000000000000000000000602082015250565b6000611476602883610e7a565b91506114818261141a565b604082019050919050565b600060208201905081810360008301526114a581611469565b9050919050565b7f526571756573742076616c7565206578636565647320636f6e7472616374206260008201527f616c616e63652e00000000000000000000000000000000000000000000000000602082015250565b6000611508602783610e7a565b9150611513826114ac565b604082019050919050565b60006020820190508181036000830152611537816114fb565b9050919050565b60008190508160005260206000209050919050565b60006020601f8301049050919050565b600082821b905092915050565b6000600883026115a07fffffffffffffffffffffffffffffffffffffffffffffffffffffffffffffffff82611563565b6115aa8683611563565b95508019841693508086168417925050509392505050565b6000819050919050565b60006115e76115e26115dd84610ff6565b6115c2565b610ff6565b9050919050565b6000819050919050565b611601836115cc565b61161561160d826115ee565b848454611570565b825550505050565b600090565b61162a61161d565b6116358184846115f8565b505050565b5b818110156116595761164e600082611622565b60018101905061163b565b5050565b601f82111561169e5761166f8161153e565b61167884611553565b81016020851015611687578190505b61169b61169385611553565b83018261163a565b50505b505050565b600082821c905092915050565b60006116c1600019846008026116a3565b1980831691505092915050565b60006116da83836116b0565b9150826002028217905092915050565b6116f382610e6f565b67ffffffffffffffff81111561170c5761170b61118e565b5b6117168254611357565b61172182828561165d565b600060209050601f8311600181146117545760008415611742578287015190505b61174c85826116ce565b8655506117b4565b601f1984166117628661153e565b60005b8281101561178a57848901518255600182019150602085019450602081019050611765565b868310156117a757848901516117a3601f8916826116b0565b8355505b6001600288020188555050505b505050505050565b7f4e487b7100000000000000000000000000000000000000000000000000000000600052601160045260246000fd5b60006117f682610ff6565b915061180183610ff6565b9250828203905081811115611819576118186117bc565b5b92915050565b600060408201905081810360008301526118398185610ec6565b90506118486020830184611000565b9392505050565b600061185a82610ff6565b915061186583610ff6565b925082820190508082111561187d5761187c6117bc565b5b92915050565b600061188e82610ff6565b91507fffffffffffffffffffffffffffffffffffffffffffffffffffffffffffffffff82036118c0576118bf6117bc565b5b600182019050919050565b7f596f75206d757374206265206120636f6e7472696275746f7220746f2070657260008201527f666f726d207468697320616374696f6e2e000000000000000000000000000000602082015250565b6000611927603183610e7a565b9150611932826118cb565b604082019050919050565b600060208201905081810360008301526119568161191a565b9050919050565b7f4e487b7100000000000000000000000000000000000000000000000000000000600052603260045260246000fd5b7f526571756573742068617320616c7265616479206265656e20636f6d706c657460008201527f65642e0000000000000000000000000000000000000000000000000000000000602082015250565b60006119e8602383610e7a565b91506119f38261198c565b604082019050919050565b60006020820190508181036000830152611a17816119db565b9050919050565b7f596f75206861766520616c726561647920766f746564206f6e2074686973207260008201527f6571756573742e00000000000000000000000000000000000000000000000000602082015250565b6000611a7a602783610e7a565b9150611a8582611a1e565b604082019050919050565b60006020820190508181036000830152611aa981611a6d565b9050919050565b7f4e487b7100000000000000000000000000000000000000000000000000000000600052601260045260246000fd5b6000611aea82610ff6565b9150611af583610ff6565b925082611b0557611b04611ab0565b5b828204905092915050565b600081905092915050565b50565b6000611b2b600083611b10565b9150611b3682611b1b565b600082019050919050565b6000611b4c82611b1e565b9150819050919050565b7f4661696c656420746f2073656e6420457468657220746f20726563697069656e60008201527f742e000000000000000000000000000000000000000000000000000000000000602082015250565b6000611bb2602283610e7a565b9150611bbd82611b56565b604082019050919050565b60006020820190508181036000830152611be181611ba5565b9050919050565b7f5265656e7472616e637947756172643a207265656e7472616e742063616c6c00600082015250565b6000611c1e601f83610e7a565b9150611c2982611be8565b602082019050919050565b60006020820190508181036000830152611c4d81611c11565b905091905056fea264697066735822122048ba520848846f83f193c672065af99605e97e478408bd960287785befaf6f3364736f6c634300081c0033a26469706673582212204d0c80b8b5ae0e74caec9e1a468097bbc3291e20187be6cec50ef95b8968d8c064736f6c634300081c0033",
  "linkReferences": {},
  "deployedLinkReferences": {}
}