{
  "_format": "hh-sol-artifact-1",
  "contractName": "Campaign",
  "sourceName": "contracts/CrowdFund.sol",
  "abi": [
    {
      "inputs": [
        {
          "internalType": "string",
          "name": "_name",
          "type": "string"
        },
        {
          "internalType": "string",
          "name": "_description",
          "type": "string"
        },
        {
          "internalType": "uint256",
          "name": "_goalInWei",
          "type": "uint256"
        },
        {
          "internalType": "address",
          "name": "_creator",
          "type": "address"
        }
      ],
      "stateMutability": "nonpayable",
      "type": "constructor"
    },
    {
      "anonymous": false,
      "inputs": [
        {
          "indexed": true,
          "internalType": "address",
          "name": "contributor",
          "type": "address"
        },
        {
          "indexed": false,
          "internalType": "uint256",
          "name": "amount",
          "type": "uint256"
        }
      ],
      "name": "Contribution",
      "type": "event"
    },
    {
      "anonymous": false,
      "inputs": [
        {
          "indexed": true,
          "internalType": "uint256",
          "name": "requestId",
          "type": "uint256"
        },
        {
          "indexed": true,
          "internalType": "address",
          "name": "approver",
          "type": "address"
        }
      ],
      "name": "RequestApproved",
      "type": "event"
    },
    {
      "anonymous": false,
      "inputs": [
        {
          "indexed": true,
          "internalType": "uint256",
          "name": "requestId",
          "type": "uint256"
        },
        {
          "indexed": false,
          "internalType": "string",
          "name": "description",
          "type": "string"
        },
        {
          "indexed": false,
          "internalType": "uint256",
          "name": "value",
          "type": "uint256"
        },
        {
          "indexed": true,
          "internalType": "address",
          "name": "recipient",
          "type": "address"
        }
      ],
      "name": "RequestCreated",
      "type": "event"
    },
    {
      "anonymous": false,
      "inputs": [
        {
          "indexed": true,
          "internalType": "uint256",
          "name": "requestId",
          "type": "uint256"
        },
        {
          "indexed": false,
          "internalType": "uint256",
          "name": "value",
          "type": "uint256"
        }
      ],
      "name": "RequestFinalized",
      "type": "event"
    },
    {
      "inputs": [],
      "name": "amountRaised",
      "outputs": [
        {
          "internalType": "uint256",
          "name": "",
          "type": "uint256"
        }
      ],
      "stateMutability": "view",
      "type": "function"
    },
    {
      "inputs": [
        {
          "internalType": "uint256",
          "name": "_requestId",
          "type": "uint256"
        }
      ],
      "name": "approveRequest",
      "outputs": [],
      "stateMutability": "nonpayable",
      "type": "function"
    },
    {
      "inputs": [
        {
          "internalType": "address",
          "name": "",
          "type": "address"
        }
      ],
      "name": "approvers",
      "outputs": [
        {
          "internalType": "bool",
          "name": "",
          "type": "bool"
        }
      ],
      "stateMutability": "view",
      "type": "function"
    },
    {
      "inputs": [],
      "name": "approversCount",
      "outputs": [
        {
          "internalType": "uint256",
          "name": "",
          "type": "uint256"
        }
      ],
      "stateMutability": "view",
      "type": "function"
    },
    {
      "inputs": [],
      "name": "contribute",
      "outputs": [],
      "stateMutability": "payable",
      "type": "function"
    },
    {
      "inputs": [
        {
          "internalType": "string",
          "name": "_description",
          "type": "string"
        },
        {
          "internalType": "uint256",
          "name": "_valueInWei",
          "type": "uint256"
        },
        {
          "internalType": "address",
          "name": "_recipient",
          "type": "address"
        }
      ],
      "name": "createRequest",
      "outputs": [],
      "stateMutability": "nonpayable",
      "type": "function"
    },
    {
      "inputs": [],
      "name": "description",
      "outputs": [
        {
          "internalType": "string",
          "name": "",
          "type": "string"
        }
      ],
      "stateMutability": "view",
      "type": "function"
    },
    {
      "inputs": [],
      "name": "getSummary",
      "outputs": [
        {
          "internalType": "address",
          "name": "",
          "type": "address"
        },
        {
          "internalType": "uint256",
          "name": "",
          "type": "uint256"
        },
        {
          "internalType": "uint256",
          "name": "",
          "type": "uint256"
        },
        {
          "internalType": "uint256",
          "name": "",
          "type": "uint256"
        },
        {
          "internalType": "uint256",
          "name": "",
          "type": "uint256"
        },
        {
          "internalType": "string",
          "name": "",
          "type": "string"
        },
        {
          "internalType": "string",
          "name": "",
          "type": "string"
        }
      ],
      "stateMutability": "view",
      "type": "function"
    },
    {
      "inputs": [],
      "name": "goalAmount",
      "outputs": [
        {
          "internalType": "uint256",
          "name": "",
          "type": "uint256"
        }
      ],
      "stateMutability": "view",
      "type": "function"
    },
    {
      "inputs": [],
      "name": "manager",
      "outputs": [
        {
          "internalType": "address",
          "name": "",
          "type": "address"
        }
      ],
      "stateMutability": "view",
      "type": "function"
    },
    {
      "inputs": [],
      "name": "name",
      "outputs": [
        {
          "internalType": "string",
          "name": "",
          "type": "string"
        }
      ],
      "stateMutability": "view",
      "type": "function"
    },
    {
      "inputs": [
        {
          "internalType": "uint256",
          "name": "",
          "type": "uint256"
        }
      ],
      "name": "requests",
      "outputs": [
        {
          "internalType": "string",
          "name": "description",
          "type": "string"
        },
        {
          "internalType": "uint256",
          "name": "value",
          "type": "uint256"
        },
        {
          "internalType": "address",
          "name": "recipient",
          "type": "address"
        },
        {
          "internalType": "bool",
          "name": "complete",
          "type": "bool"
        },
        {
          "internalType": "uint256",
          "name": "approvalCount",
          "type": "uint256"
        }
      ],
      "stateMutability": "view",
      "type": "function"
    }
  ],
  "bytecode": "0x60c060405234801561001057600080fd5b506040516122a63803806122a6833981810160405281019061003291906102a8565b60016000819055508360019081610049919061055e565b508260029081610059919061055e565b508073ffffffffffffffffffffffffffffffffffffffff1660808173ffffffffffffffffffffffffffffffffffffffff16815250508160a0818152505050505050610630565b6000604051905090565b600080fd5b600080fd5b600080fd5b600080fd5b6000601f19601f8301169050919050565b7f4e487b7100000000000000000000000000000000000000000000000000000000600052604160045260246000fd5b610106826100bd565b810181811067ffffffffffffffff82111715610125576101246100ce565b5b80604052505050565b600061013861009f565b905061014482826100fd565b919050565b600067ffffffffffffffff821115610164576101636100ce565b5b61016d826100bd565b9050602081019050919050565b60005b8381101561019857808201518184015260208101905061017d565b60008484015250505050565b60006101b76101b284610149565b61012e565b9050828152602081018484840111156101d3576101d26100b8565b5b6101de84828561017a565b509392505050565b600082601f8301126101fb576101fa6100b3565b5b815161020b8482602086016101a4565b91505092915050565b6000819050919050565b61022781610214565b811461023257600080fd5b50565b6000815190506102448161021e565b92915050565b600073ffffffffffffffffffffffffffffffffffffffff82169050919050565b60006102758261024a565b9050919050565b6102858161026a565b811461029057600080fd5b50565b6000815190506102a28161027c565b92915050565b600080600080608085870312156102c2576102c16100a9565b5b600085015167ffffffffffffffff8111156102e0576102df6100ae565b5b6102ec878288016101e6565b945050602085015167ffffffffffffffff81111561030d5761030c6100ae565b5b610319878288016101e6565b935050604061032a87828801610235565b925050606061033b87828801610293565b91505092959194509250565b600081519050919050565b7f4e487b7100000000000000000000000000000000000000000000000000000000600052602260045260246000fd5b6000600282049050600182168061039957607f821691505b6020821081036103ac576103ab610352565b5b50919050565b60008190508160005260206000209050919050565b60006020601f8301049050919050565b600082821b905092915050565b6000600883026104147fffffffffffffffffffffffffffffffffffffffffffffffffffffffffffffffff826103d7565b61041e86836103d7565b95508019841693508086168417925050509392505050565b6000819050919050565b600061045b61045661045184610214565b610436565b610214565b9050919050565b6000819050919050565b61047583610440565b61048961048182610462565b8484546103e4565b825550505050565b600090565b61049e610491565b6104a981848461046c565b505050565b5b818110156104cd576104c2600082610496565b6001810190506104af565b5050565b601f821115610512576104e3816103b2565b6104ec846103c7565b810160208510156104fb578190505b61050f610507856103c7565b8301826104ae565b50505b505050565b600082821c905092915050565b600061053560001984600802610517565b1980831691505092915050565b600061054e8383610524565b9150826002028217905092915050565b61056782610347565b67ffffffffffffffff8111156105805761057f6100ce565b5b61058a8254610381565b6105958282856104d1565b600060209050601f8311600181146105c857600084156105b6578287015190505b6105c08582610542565b865550610628565b601f1984166105d6866103b2565b60005b828110156105fe578489015182556001820191506020850194506020810190506105d9565b8683101561061b5784890151610617601f891682610524565b8355505b6001600288020188555050505b505050505050565b60805160a051611c3c61066a6000396000818161036901526103b90152600081816103980152818161051901526106d20152611c3c6000f3fe6080604052600436106100a75760003560e01c80637b3e5e7b116100645780637b3e5e7b146101c657806381d12c58146101f157806382fde093146102325780638a9cfd551461025d578063d7bb99ba14610286578063d7d1bbdb14610290576100a7565b806306fdde03146100ac5780630a144391146100d75780632636b945146101145780634051ddac1461013f578063481c6a75146101705780637284e4161461019b575b600080fd5b3480156100b857600080fd5b506100c16102b9565b6040516100ce9190610eb1565b60405180910390f35b3480156100e357600080fd5b506100fe60048036038101906100f99190610f45565b610347565b60405161010b9190610f8d565b60405180910390f35b34801561012057600080fd5b50610129610367565b6040516101369190610fc1565b60405180910390f35b34801561014b57600080fd5b5061015461038b565b6040516101679796959493929190610feb565b60405180910390f35b34801561017c57600080fd5b50610185610517565b6040516101929190611068565b60405180910390f35b3480156101a757600080fd5b506101b061053b565b6040516101bd9190610eb1565b60405180910390f35b3480156101d257600080fd5b506101db6105c9565b6040516101e89190610fc1565b60405180910390f35b3480156101fd57600080fd5b50610218600480360381019061021391906110af565b6105cf565b6040516102299594939291906110dc565b60405180910390f35b34801561023e57600080fd5b506102476106ca565b6040516102549190610fc1565b60405180910390f35b34801561026957600080fd5b50610284600480360381019061027f919061126b565b6106d0565b005b61028e6108f5565b005b34801561029c57600080fd5b506102b760048036038101906102b291906110af565b610a20565b005b600180546102c690611309565b80601f01602080910402602001604051908101604052809291908181526020018280546102f290611309565b801561033f5780601f106103145761010080835404028352916020019161033f565b820191906000526020600020905b81548152906001019060200180831161032257829003601f168201915b505050505081565b60066020528060005260406000206000915054906101000a900460ff1681565b7f000000000000000000000000000000000000000000000000000000000000000081565b60008060008060006060807f00000000000000000000000000000000000000000000000000000000000000007f0000000000000000000000000000000000000000000000000000000000000000600354600454600580549050600160028180546103f490611309565b80601f016020809104026020016040519081016040528092919081815260200182805461042090611309565b801561046d5780601f106104425761010080835404028352916020019161046d565b820191906000526020600020905b81548152906001019060200180831161045057829003601f168201915b5050505050915080805461048090611309565b80601f01602080910402602001604051908101604052809291908181526020018280546104ac90611309565b80156104f95780601f106104ce576101008083540402835291602001916104f9565b820191906000526020600020905b8154815290600101906020018083116104dc57829003601f168201915b50505050509050965096509650965096509650965090919293949596565b7f000000000000000000000000000000000000000000000000000000000000000081565b6002805461054890611309565b80601f016020809104026020016040519081016040528092919081815260200182805461057490611309565b80156105c15780601f10610596576101008083540402835291602001916105c1565b820191906000526020600020905b8154815290600101906020018083116105a457829003601f168201915b505050505081565b60035481565b600581815481106105df57600080fd5b906000526020600020906005020160009150905080600001805461060290611309565b80601f016020809104026020016040519081016040528092919081815260200182805461062e90611309565b801561067b5780601f106106505761010080835404028352916020019161067b565b820191906000526020600020905b81548152906001019060200180831161065e57829003601f168201915b5050505050908060010154908060020160009054906101000a900473ffffffffffffffffffffffffffffffffffffffff16908060020160149054906101000a900460ff16908060030154905085565b60045481565b7f000000000000000000000000000000000000000000000000000000000000000073ffffffffffffffffffffffffffffffffffffffff163373ffffffffffffffffffffffffffffffffffffffff161461075e576040517f08c379a0000000000000000000000000000000000000000000000000000000008152600401610755906113ac565b60405180910390fd5b600082116107a1576040517f08c379a00000000000000000000000000000000000000000000000000000000081526004016107989061143e565b60405180910390fd5b478211156107e4576040517f08c379a00000000000000000000000000000000000000000000000000000000081526004016107db906114d0565b60405180910390fd5b60006005600181600181540180825580915050039060005260206000209060050201905083816000019081610819919061169c565b50828160010181905550818160020160006101000a81548173ffffffffffffffffffffffffffffffffffffffff021916908373ffffffffffffffffffffffffffffffffffffffff16021790555060008160020160146101000a81548160ff021916908315150217905550600081600301819055508173ffffffffffffffffffffffffffffffffffffffff1660016005805490506108b6919061179d565b7ff7365309cb3a1c4835d32acd2153ebf718723e270daad5bb2aac6dd47564583b86866040516108e79291906117d1565b60405180910390a350505050565b34600360008282546109079190611801565b92505081905550600660003373ffffffffffffffffffffffffffffffffffffffff1673ffffffffffffffffffffffffffffffffffffffff16815260200190815260200160002060009054906101000a900460ff166109d0576001600660003373ffffffffffffffffffffffffffffffffffffffff1673ffffffffffffffffffffffffffffffffffffffff16815260200190815260200160002060006101000a81548160ff021916908315150217905550600460008154809291906109ca90611835565b91905055505b3373ffffffffffffffffffffffffffffffffffffffff167f4d154d4aae216bed6d0926db77c00df2b57c6b5ba4eee05775de20facede3a7b34604051610a169190610fc1565b60405180910390a2565b600660003373ffffffffffffffffffffffffffffffffffffffff1673ffffffffffffffffffffffffffffffffffffffff16815260200190815260200160002060009054906101000a900460ff16610aac576040517f08c379a0000000000000000000000000000000000000000000000000000000008152600401610aa3906118ef565b60405180910390fd5b610ab4610dc8565b600060058281548110610aca57610ac961190f565b5b906000526020600020906005020190508060020160149054906101000a900460ff1615610b2c576040517f08c379a0000000000000000000000000000000000000000000000000000000008152600401610b23906119b0565b60405180910390fd5b8060040160003373ffffffffffffffffffffffffffffffffffffffff1673ffffffffffffffffffffffffffffffffffffffff16815260200190815260200160002060009054906101000a900460ff1615610bbb576040517f08c379a0000000000000000000000000000000000000000000000000000000008152600401610bb290611a42565b60405180910390fd5b60018160040160003373ffffffffffffffffffffffffffffffffffffffff1673ffffffffffffffffffffffffffffffffffffffff16815260200190815260200160002060006101000a81548160ff021916908315150217905550806003016000815480929190610c2a90611835565b91905055503373ffffffffffffffffffffffffffffffffffffffff16827ff3dc904660a0ea05aba8dfa1e21fbc4fb2914be2a3029da7b0fdd3e5eee20ddb60405160405180910390a36002600454610c829190611a91565b81600301541115610dbc5760018160020160146101000a81548160ff02191690831515021790555060008160020160009054906101000a900473ffffffffffffffffffffffffffffffffffffffff1673ffffffffffffffffffffffffffffffffffffffff168260010154604051610cf890611af3565b60006040518083038185875af1925050503d8060008114610d35576040519150601f19603f3d011682016040523d82523d6000602084013e610d3a565b606091505b5050905080610d7e576040517f08c379a0000000000000000000000000000000000000000000000000000000008152600401610d7590611b7a565b60405180910390fd5b827f32049dd953ebfcf3c26cca1f53047ca229eb54d89c7d68bac411c76510ade8bf8360010154604051610db29190610fc1565b60405180910390a2505b50610dc5610e17565b50565b600260005403610e0d576040517f08c379a0000000000000000000000000000000000000000000000000000000008152600401610e0490611be6565b60405180910390fd5b6002600081905550565b6001600081905550565b600081519050919050565b600082825260208201905092915050565b60005b83811015610e5b578082015181840152602081019050610e40565b60008484015250505050565b6000601f19601f8301169050919050565b6000610e8382610e21565b610e8d8185610e2c565b9350610e9d818560208601610e3d565b610ea681610e67565b840191505092915050565b60006020820190508181036000830152610ecb8184610e78565b905092915050565b6000604051905090565b600080fd5b600080fd5b600073ffffffffffffffffffffffffffffffffffffffff82169050919050565b6000610f1282610ee7565b9050919050565b610f2281610f07565b8114610f2d57600080fd5b50565b600081359050610f3f81610f19565b92915050565b600060208284031215610f5b57610f5a610edd565b5b6000610f6984828501610f30565b91505092915050565b60008115159050919050565b610f8781610f72565b82525050565b6000602082019050610fa26000830184610f7e565b92915050565b6000819050919050565b610fbb81610fa8565b82525050565b6000602082019050610fd66000830184610fb2565b92915050565b610fe581610f07565b82525050565b600060e082019050611000600083018a610fdc565b61100d6020830189610fb2565b61101a6040830188610fb2565b6110276060830187610fb2565b6110346080830186610fb2565b81810360a08301526110468185610e78565b905081810360c083015261105a8184610e78565b905098975050505050505050565b600060208201905061107d6000830184610fdc565b92915050565b61108c81610fa8565b811461109757600080fd5b50565b6000813590506110a981611083565b92915050565b6000602082840312156110c5576110c4610edd565b5b60006110d38482850161109a565b91505092915050565b600060a08201905081810360008301526110f68188610e78565b90506111056020830187610fb2565b6111126040830186610fdc565b61111f6060830185610f7e565b61112c6080830184610fb2565b9695505050505050565b600080fd5b600080fd5b7f4e487b7100000000000000000000000000000000000000000000000000000000600052604160045260246000fd5b61117882610e67565b810181811067ffffffffffffffff8211171561119757611196611140565b5b80604052505050565b60006111aa610ed3565b90506111b6828261116f565b919050565b600067ffffffffffffffff8211156111d6576111d5611140565b5b6111df82610e67565b9050602081019050919050565b82818337600083830152505050565b600061120e611209846111bb565b6111a0565b90508281526020810184848401111561122a5761122961113b565b5b6112358482856111ec565b509392505050565b600082601f83011261125257611251611136565b5b81356112628482602086016111fb565b91505092915050565b60008060006060848603121561128457611283610edd565b5b600084013567ffffffffffffffff8111156112a2576112a1610ee2565b5b6112ae8682870161123d565b93505060206112bf8682870161109a565b92505060406112d086828701610f30565b9150509250925092565b7f4e487b7100000000000000000000000000000000000000000000000000000000600052602260045260246000fd5b6000600282049050600182168061132157607f821691505b602082108103611334576113336112da565b5b50919050565b7f4f6e6c7920746865206d616e616765722063616e20706572666f726d2074686960008201527f7320616374696f6e2e0000000000000000000000000000000000000000000000602082015250565b6000611396602983610e2c565b91506113a18261133a565b604082019050919050565b600060208201905081810360008301526113c581611389565b9050919050565b7f526571756573742076616c7565206d757374206265206772656174657220746860008201527f616e207a65726f2e000000000000000000000000000000000000000000000000602082015250565b6000611428602883610e2c565b9150611433826113cc565b604082019050919050565b600060208201905081810360008301526114578161141b565b9050919050565b7f526571756573742076616c7565206578636565647320636f6e7472616374206260008201527f616c616e63652e00000000000000000000000000000000000000000000000000602082015250565b60006114ba602783610e2c565b91506114c58261145e565b604082019050919050565b600060208201905081810360008301526114e9816114ad565b9050919050565b60008190508160005260206000209050919050565b60006020601f8301049050919050565b600082821b905092915050565b6000600883026115527fffffffffffffffffffffffffffffffffffffffffffffffffffffffffffffffff82611515565b61155c8683611515565b95508019841693508086168417925050509392505050565b6000819050919050565b600061159961159461158f84610fa8565b611574565b610fa8565b9050919050565b6000819050919050565b6115b38361157e565b6115c76115bf826115a0565b848454611522565b825550505050565b600090565b6115dc6115cf565b6115e78184846115aa565b505050565b5b8181101561160b576116006000826115d4565b6001810190506115ed565b5050565b601f82111561165057611621816114f0565b61162a84611505565b81016020851015611639578190505b61164d61164585611505565b8301826115ec565b50505b505050565b600082821c905092915050565b600061167360001984600802611655565b1980831691505092915050565b600061168c8383611662565b9150826002028217905092915050565b6116a582610e21565b67ffffffffffffffff8111156116be576116bd611140565b5b6116c88254611309565b6116d382828561160f565b600060209050601f83116001811461170657600084156116f4578287015190505b6116fe8582611680565b865550611766565b601f198416611714866114f0565b60005b8281101561173c57848901518255600182019150602085019450602081019050611717565b868310156117595784890151611755601f891682611662565b8355505b6001600288020188555050505b505050505050565b7f4e487b7100000000000000000000000000000000000000000000000000000000600052601160045260246000fd5b60006117a882610fa8565b91506117b383610fa8565b92508282039050818111156117cb576117ca61176e565b5b92915050565b600060408201905081810360008301526117eb8185610e78565b90506117fa6020830184610fb2565b9392505050565b600061180c82610fa8565b915061181783610fa8565b925082820190508082111561182f5761182e61176e565b5b92915050565b600061184082610fa8565b91507fffffffffffffffffffffffffffffffffffffffffffffffffffffffffffffffff82036118725761187161176e565b5b600182019050919050565b7f596f75206d757374206265206120636f6e7472696275746f7220746f2070657260008201527f666f726d207468697320616374696f6e2e000000000000000000000000000000602082015250565b60006118d9603183610e2c565b91506118e48261187d565b604082019050919050565b60006020820190508181036000830152611908816118cc565b9050919050565b7f4e487b7100000000000000000000000000000000000000000000000000000000600052603260045260246000fd5b7f526571756573742068617320616c7265616479206265656e20636f6d706c657460008201527f65642e0000000000000000000000000000000000000000000000000000000000602082015250565b600061199a602383610e2c565b91506119a58261193e565b604082019050919050565b600060208201905081810360008301526119c98161198d565b9050919050565b7f596f75206861766520616c726561647920766f746564206f6e2074686973207260008201527f6571756573742e00000000000000000000000000000000000000000000000000602082015250565b6000611a2c602783610e2c565b9150611a37826119d0565b604082019050919050565b60006020820190508181036000830152611a5b81611a1f565b9050919050565b7f4e487b7100000000000000000000000000000000000000000000000000000000600052601260045260246000fd5b6000611a9c82610fa8565b9150611aa783610fa8565b925082611ab757611ab6611a62565b5b828204905092915050565b600081905092915050565b50565b6000611add600083611ac2565b9150611ae882611acd565b600082019050919050565b6000611afe82611ad0565b9150819050919050565b7f4661696c656420746f2073656e6420457468657220746f20726563697069656e60008201527f742e000000000000000000000000000000000000000000000000000000000000602082015250565b6000611b64602283610e2c565b9150611b6f82611b08565b604082019050919050565b60006020820190508181036000830152611b9381611b57565b9050919050565b7f5265656e7472616e637947756172643a207265656e7472616e742063616c6c00600082015250565b6000611bd0601f83610e2c565b9150611bdb82611b9a565b602082019050919050565b60006020820190508181036000830152611bff81611bc3565b905091905056fea26469706673582212204a5673113aa5457ecbb21c379f90fd8829046bac359cf01963e3fb2e3d233c8e64736f6c634300081c0033",
  "linkReferences": {},
  "deployedLinkReferences": {}
}